:100000000C9450010C9477080C944C080C94210823
:100010000C94F6070C94CB070C94A0070C9475076E
:100020000C944A070C9481010C9481010C94810179
:100030000C9481010C9481010C9481010C94810138
:100040000C9481010C9481010C9481010C94810128
:100050000C9481010C9481010C9481010C94000793
:100060000C9481010C94CC080C94A2080C9481018E
:100070000C9481010C9481010C9481010C948101F8
:100080000C9481010C9481010C9481010C948101E8
:100090000C9481010C9481010C9481010C948101D8
:1000A0000C9481010C9481010C9481010C948101C8
:1000B0000C9481010C9481010C9481010C948101B8
:1000C0000C9481010C9481010C9481010C948101A8
:1000D0000C9481010C9481010C9481010C94810198
:1000E0000C9481010C9485020C94E0020C94DE03C4
:1000F0000C94ED010C94FE020C942B030C94AB02B7
:100100000C94D6010C9499020C946D030C94D901B3
:100110000C94CA010C948F020C94C7020C947C03BB
:100120000C94CE010C9408030C94BD020C94FF01B6
:100130000C9412030C9480020C94A3020C941604E9
:100140000C94B3010C94F7010C9440030C94B80187
:100150000C94010E0C94DF010C943F030C940502E7
:100160000C94E3010C94F4020C94B3020C94630419
:100170000C94D0030C94EA020C94D2010C94FB0171
:100180000C9417030C94E9010C9478020C94D1029E
:100190000C9409020C94F1010000210024002700B6
:1001A0002A002D0030003300010100000401070186
:1001B0000A0100002200250028002B002E0031003B
:1001C000340002010000050108010B0105050505C9
:1001D000070508080808020202020A0A08080404BF
:1001E00004040101010101010101030303030303ED
:1001F0000303040707070C0C0C0C0C0C0C0C02027C
:10020000020206060606060606060B0B0B0B0B0B78
:100210000B0B010210202008081020401020408005
:1002200002010201080402010102040810204080BA
:100230008040201008040201800402018040201048
:100240000804020108040201010204081020408091
:10025000010204081020408000000A0B02090C0D66
:100260000E08070304010000000000000000000069
:10027000000000000000000000000000000000007E
:10028000000000001211100000000000000000003B
:100290000000000000000000000000000000010E4F
:1002A00011241FBECFEFD1E2DEBFCDBF00E00CBFF7
:1002B00024E0A8E9B3E001C01D92AA34B207E1F737
:1002C00013E0A0E0B2E0ECE1F6E200E00BBF02C018
:1002D00007900D92A839B107D9F711E0C0E5D1E038
:1002E00000E006C021970109802FFE010E94BC0F8B
:1002F000CF34D10780E00807A9F70E94DE090C94EB
:100300000C130C940000282F30E0F901E85AFD4F3F
:100310009491F901EE5EFD4F449124533E4FF90153
:100320002491222309F435C0992311F1915092317F
:10033000F8F4E92FF0E08827EF55FE4F8F4F0C942B
:10034000BC0FD201D601B301CA01CE01B801D90157
:10035000DF01E301E901ED01F101F701FB01B80162
:10036000FF0105020902809180008F778093800051
:10037000E22FF0E0EE0FFF1FEE54FE4FA591B49177
:100380008FB7F894EC91611148C040954E234C937F
:100390008FBF0895809180008F7DE8CF809180008D
:1003A000877FE4CF84B58F7784BDE2CF84B58F7D1E
:1003B000FBCF8091B0008F778093B000D9CF809130
:1003C000B0008F7DF9CF809190008F77809390005F
:1003D000CFCF809190008F7DF9CF80919000877F63
:1003E000F5CF8091A0008F778093A000C1CF80913E
:1003F000A0008F7DF9CF8091A000877FF5CF8091FD
:1004000020018F7780932001B3CF809120018F7DD1
:10041000F9CF80912001877FF5CF4E2BB8CFCF93B6
:10042000DF9390E0FC01EE5EFD4F249184539E4FDC
:10043000FC0184918823D1F090E0880F991FFC0182
:10044000E856FE4FA591B491FC01EE54FE4FC591C4
:10045000D491623071F49FB7F8943C91822F8095CB
:1004600083238C93E8812E2B28839FBFDF91CF912C
:1004700008958FB7F894EC912E2B2C938FBFF6CF65
:100480001F93CF93DF93182FEB0161E00E940F02BF
:10049000209739F460E0812FDF91CF911F910C9468
:1004A0008301CF3FD10511F461E0F5CFE12FF0E0FA
:1004B000E85AFD4FE491E150E23108F0B3C0F0E0BA
:1004C0008827EA59FD4F8F4F0C94BC0F78028002A9
:1004D00085028F0299021203A302AB02B302BD028E
:1004E000C702D102E002EA021203F402FE0208038C
:1004F00084B5806884BDC7BDDF91CF911F910895F9
:1005000084B5806284BDC8BDF7CF809180008068CB
:1005100080938000D0938900C0938800EDCF8091B4
:100520008000806280938000D0938B00C0938A000B
:10053000E3CF80918000886080938000D0938D000D
:10054000C0938C00D9CF8091B00080688093B000B8
:10055000C093B300D1CF8091B00080628093B0008F
:10056000C093B400C9CF80919000806880939000C0
:10057000D0939900C0939800BFCF80919000806283
:1005800080939000D0939B00C0939A00B5CF809148
:100590009000886080939000D0939D00C0939C0051
:1005A000ABCF8091A00080688093A0008091A000D4
:1005B0008F7B8093A000D093A900C093A8009CCF0C
:1005C0008091A00080628093A000D093AB00C09384
:1005D000AA0092CF8091A00088608093A000D09361
:1005E000AD00C093AC0088CF8091200180688093DB
:1005F0002001D0932901C09328017ECF8091200152
:10060000806280932001D0932B01C0932A0174CF84
:1006100080912001886080932001D0932D01C093A8
:100620002C016ACFC038D1050CF03ECF33CF80917A
:100630009C0390919D03A0919E03B0919F0301960E
:10064000A11DB11D80939C0390939D03A0939E03D5
:10065000B0939F0308958091980390919903A0917E
:100660009A03B0919B030196A11DB11D809398033D
:1006700090939903A0939A03B0939B0308950895D0
:10068000AF92BF92CF92DF92EF92FF920F931F93A0
:10069000CF93DF936C017B018B01040F151FEB01DE
:1006A0005E01AE18BF08C017D10759F06991D60195
:1006B000ED91FC910190F081E02DC6011995892BF7
:1006C00079F7C501DF91CF911F910F91FF90EF90C6
:1006D000DF90CF90BF90AF900895FC01538D448D73
:1006E000252F30E0842F90E0821B930B541710F0DD
:1006F000CF96089501970895FC01918D828D9817EA
:1007000061F0A28DAE0FBF2FB11D5D968C91928DC1
:100710009F5F9F73928F90E008958FEF9FEF0895F2
:100720002FB7F8948091A5039091A603A091A703F9
:10073000B091A8032FBF8093B1039093B203A0930D
:10074000B303B093B40389EA93E00E947C0397FF5C
:1007500026C02FB7F8948091A5039091A603A0918D
:10076000A703B091A8032FBF4091B1035091B203EA
:100770006091B3037091B403841B950BA60BB70B68
:100780004091AD035091AE036091AF037091B003FF
:1007900084179507A607B707B0F28FEF9FEF08956C
:1007A000FC01918D828D981731F0828DE80FF11D3B
:1007B000858D90E008958FEF9FEF0895FC01918D56
:1007C000228D892F90E0805C9F4F821B91098F734F
:1007D0009927089589EA93E00E94DE0321E0892B9E
:1007E00009F420E0822F0895FC01A48DA80FB92FF1
:1007F000B11DA35ABF4F2C91848D90E001968F7349
:100800009927848FA689B7892C93A089B1898C9167
:10081000837080648C93938D848D981306C00288B6
:10082000F389E02D80818F7D80830895EF92FF9280
:100830000F931F93CF93DF93EC0181E0888F9B8D03
:100840008C8D98131AC0E889F989808185FF15C0BD
:100850009FB7F894EE89FF896083E889F9898081E0
:100860008370806480839FBF81E090E0DF91CF91AF
:100870001F910F91FF90EF900895F62E0B8D10E0D1
:100880000F5F1F4F0F731127E02E8C8D8E110CC040
:100890000FB607FCFACFE889F989808185FFF5CF8B
:1008A000CE010E94F403F1CFEB8DEC0FFD2FF11D73
:1008B000E35AFF4FF0829FB7F8940B8FEA89FB89C8
:1008C00080818062CFCFCF93DF93EC01888D882326
:1008D000B9F0AA89BB89E889F9898C9185FD03C0A3
:1008E000808186FD0DC00FB607FCF7CF8C9185FF88
:1008F000F2CF808185FFEDCFCE010E94F403E9CFD6
:10090000DF91CF91089580E090E0892B29F00E943B
:10091000EA0381110E94000080E090E0892B49F0F9
:1009200080E090E0892B29F00E94000081110E9454
:10093000000080E090E0892B49F080E090E0892B76
:1009400029F00E94000081110E94000080E090E0E8
:10095000892B49F080E090E0892B29F00E9400006B
:1009600081110C94000008951F93CF93DF93162FED
:1009700041309FEF5907ECF0EA014F3F510519F064
:1009800014F0CFEFD0E0BE0114161506ACF070E005
:1009900060E0452B89F070E060E00E94400266272D
:1009A00077276C1B7D0B812FDF91CF911F910C94CA
:1009B0004002C1E0DFEFEFCF0E94400270E060E054
:1009C000F2CF50E040E066E070E085E090E00E9409
:1009D000B40450E040E06AE070E089E090E00C94FC
:1009E000B404FC0101900020E9F73197AF01481BE6
:1009F000590BBC0189EA93E00C9440038F929F92BB
:100A0000AF92BF920F931F93CF93DF93CDB7DEB713
:100A1000A1970FB6F894DEBF0FBECDBF19A242302A
:100A200008F44AE08E010F5D1F4F842E912CB12CEB
:100A3000A12CA50194010E949A0FE62FB901CA01C9
:100A4000EA30F4F4E05DD801EE938D01232B242BE2
:100A5000252B79F790E080E0109719F0CD010E94E6
:100A6000F104A1960FB6F894DEBF0FBECDBFDF91A3
:100A7000CF911F910F91BF90AF909F908F9008954D
:100A8000E95CE1CFCF92DF92EF92FF92CF93DF93B9
:100A90006B017C016DE289EA93E00E941604EC018F
:100AA00066277727CB016C197D098E099F094AE0DB
:100AB0000E94FE048C0F9D1FDF91CF91FF90EF905D
:100AC000DF90CF900895CF93DF930E94F104EC0163
:100AD0008AE292E00E94F1048C0F9D1FDF91CF917A
:100AE00008950C94F104CF93DF93BC01990F880B08
:100AF000990B97FF0CC00E944205EC018AE292E03C
:100B00000E94F1048C0F9D1FDF91CF9108954AE060
:100B10000E94FE04F2CFBC01990F880B990B97FD40
:100B20000C9442054AE00C94FE04FC018081918102
:100B3000009711F00C947F110895FC018081918140
:100B4000009711F00C942E0E60E070E0CB01089538
:100B5000AF92BF92CF92DF92EF92FF920F931F93CB
:100B6000CF93DF93DC01CD90DC901197C114D104B9
:100B700039F01496CD91DC918C017601209761F4C7
:100B8000DF91CF911F910F91FF90EF90DF90CF9069
:100B9000BF90AF90089575015701BFEFAB1ABB0A24
:100BA000F7018081082E000C990B0E946A0E892B98
:100BB00091F72197CC0DDD1D8881082E000C990B33
:100BC0000E946A0E892B29F0CE15DF0510F02197BF
:100BD000F3CFAE014F5F5F4F4E195F09D8011596F5
:100BE0005C934E931497CE14DF0420F4B701C60132
:100BF0000E94F112D801ED91FC91119714968D91FC
:100C00009C91E80FF91F1082BBCFEF92FF920F93D8
:100C10001F93CF93DF938617970769F1FC01248117
:100C20003581FB014481558124173507E1F4232BDD
:100C300011F1FC0100811181FB01C081D181F8011A
:100C400081918F018823B9F0082E000C990B0E9426
:100C5000E9127C018991082E000C990B0E94E9127F
:100C6000E816F90661F380E0DF91CF911F910F91B3
:100C7000FF90EF90089581E0F7CF0F931F93CF93EC
:100C8000DF93EC0188819981009759F02A813B819B
:100C90002617370730F081E0DF91CF911F910F9138
:100CA00008958B016F5F7F4F0E940812009759F0E3
:100CB000998388831B830A832C813D81232B59F7D9
:100CC000FC011082E8CF80E0E7CFEF92FF920F9314
:100CD0001F93CF93DF93EC017B018A01BA010E943D
:100CE0003D0628813981811114C02115310519F083
:100CF000C9010E947F11198218821D821C821B82E9
:100D00001A82CE01DF91CF911F910F91FF90EF904A
:100D100008951D830C83B701C9010E940513F1CF0B
:100D2000FC01118210821382128215821482FB014F
:100D300001900020E9F73197AF01461B570B0C9447
:100D40006506AF92BF92CF92DF92EF92FF920F9320
:100D50001F93CF93DF93EC016B015A0179012417A4
:100D6000350720F48B2D5901E42EF82E6CE272E049
:100D7000CE010E949006D60114960D911C91A016EA
:100D8000B10628F5E016F10608F48701D601ED91C9
:100D9000FC911197E00FF11FF08010826D917C9112
:100DA0006A0D7B1D61157105F1F0FB0101900020BA
:100DB000E9F73197AF01461B570BCE010E9465063C
:100DC000F60180819181080F191FD801FC92CE0194
:100DD000DF91CF911F910F91FF90EF90DF90CF9017
:100DE000BF90AF90089588819981009711F00E947B
:100DF0007F11198218821D821C821B821A82E0CF09
:100E00001F920F920FB60F9211242F933F938F933F
:100E10009F93AF93BF938091A5039091A603A09158
:100E2000A703B091A8033091A40323E0230F2D372B
:100E300058F50196A11DB11D2093A4038093A5032D
:100E40009093A603A093A703B093A8038091A00357
:100E50009091A103A091A203B091A3030196A11DBB
:100E6000B11D8093A0039093A103A093A203B0931C
:100E7000A303BF91AF919F918F913F912F910F90BD
:100E80000FBE0F901F90189526E8230F0296A11D04
:100E9000B11DD2CF1F920F920FB60F9211240BB635
:100EA0000F922F933F934F935F936F937F938F9303
:100EB0009F93AF93BF93EF93FF93E0910E02F09156
:100EC0000F021995FF91EF91BF91AF919F918F9173
:100ED0007F916F915F914F913F912F910F900BBE3A
:100EE0000F900FBE0F901F9018951F920F920FB684
:100EF0000F9211240BB60F922F933F934F935F9352
:100F00006F937F938F939F93AF93BF93EF93FF93D1
:100F1000E0910C02F0910D021995FF91EF91BF91B4
:100F2000AF919F918F917F916F915F914F913F9181
:100F30002F910F900BBE0F900FBE0F901F90189522
:100F40001F920F920FB60F9211240BB60F922F9390
:100F50003F934F935F936F937F938F939F93AF9341
:100F6000BF93EF93FF93E0910202F0910302199572
:100F7000FF91EF91BF91AF919F918F917F916F9171
:100F80005F914F913F912F910F900BBE0F900FBE2D
:100F90000F901F9018951F920F920FB60F92112469
:100FA0000BB60F922F933F934F935F936F937F9363
:100FB0008F939F93AF93BF93EF93FF93E0910002C2
:100FC000F09101021995FF91EF91BF91AF919F911F
:100FD0008F917F916F915F914F913F912F910F90E2
:100FE0000BBE0F900FBE0F901F9018951F920F927F
:100FF0000FB60F9211240BB60F922F933F934F937E
:101000005F936F937F938F939F93AF93BF93EF9370
:10101000FF93E0910A02F0910B021995FF91EF9175
:10102000BF91AF919F918F917F916F915F914F9100
:101030003F912F910F900BBE0F900FBE0F901F90FE
:1010400018951F920F920FB60F9211240BB60F92A4
:101050002F933F934F935F936F937F938F939F93C0
:10106000AF93BF93EF93FF93E0910802F0910902D1
:101070001995FF91EF91BF91AF919F918F917F91C2
:101080006F915F914F913F912F910F900BBE0F90F9
:101090000FBE0F901F9018951F920F920FB60F92D0
:1010A00011240BB60F922F933F934F935F936F933F
:1010B0007F938F939F93AF93BF93EF93FF93E091B1
:1010C0000602F09107021995FF91EF91BF91AF9140
:1010D0009F918F917F916F915F914F913F912F9150
:1010E0000F900BBE0F900FBE0F901F9018951F9280
:1010F0000F920FB60F9211240BB60F922F933F93BE
:101100004F935F936F937F938F939F93AF93BF930F
:10111000EF93FF93E0910402F09105021995FF917E
:10112000EF91BF91AF919F918F917F916F915F915F
:101130004F913F912F910F900BBE0F900FBE0F90CC
:101140001F9018951F920F920FB60F9211240BB695
:101150000F922F933F934F935F936F937F938F9350
:101160009F93AF93BF93EF93FF9389EA93E00E941D
:10117000F403FF91EF91BF91AF919F918F917F9178
:101180006F915F914F913F912F910F900BBE0F90F8
:101190000FBE0F901F9018951F920F920FB60F92CF
:1011A00011240BB60F922F938F939F93EF93FF937E
:1011B000E091B903F091BA038081E091BF03F0910F
:1011C000C00382FD1DC090818091C2038F5F8F7329
:1011D0002091C303821741F0E091C203F0E0E7558C
:1011E000FC4F958F8093C203FF91EF919F918F9158
:1011F0002F910F900BBE0F900FBE0F901F90189560
:101200008081F2CF4F925F926F927F928F929F92E6
:10121000AF92BF92CF92DF92EF92FF920F931F9304
:10122000CF936B017C01742EAC019B010E94DE10F8
:10123000882399F08DE292E0CF911F910F91FF905A
:10124000EF90DF90CF90BF90AF909F908F907F9066
:101250006F905F904F900C94F10446015701E89411
:10126000B7F82FEF3FEF4FE75FE7C501B4010E94EA
:10127000DE1081110DC02FEF3FEF4FE75FE7C50193
:10128000B4010E94730E18161CF481E392E0D4CFCF
:101290002FEF3FEF4FE75FE4C701B6010E94D9107F
:1012A00018161CF485E392E0C7CF2FEF3FEF4FE70E
:1012B0005FECC701B6010E94730E87FDF3CF20E0FB
:1012C00030E0A901C701B6010E94730E10E000E0F2
:1012D00087FF0AC06DE289EA93E00E9416048C0140
:1012E000F7FAF094F7F8F094C0E060E070E080E086
:1012F0009FE37C1641F020E030E040E251E40E94A0
:101300003110CF5FF6CFA70196010E94C50F2B01C8
:101310003C010E94AA104B015C014AE00E94FE04BD
:101320007C01E00EF11ECC23C1F1C501B4010E9485
:10133000780E9B01AC01C301B2010E94C40F4B01A6
:101340005C016EE289EA93E00E941604E80EF91E41
:10135000C15018F120E030E040E251E4C501B40191
:101360000E94D90E2B013C010E94AA104B01B12C06
:10137000A12C4AE0C501B4010E94FE04E80EF91E4A
:10138000C501B4010E94780E9B01AC01C301B201FA
:101390000E94C40F4B015C01DBCFC701CF911F91AD
:1013A0000F91FF90EF90DF90CF90BF90AF909F9004
:1013B0008F907F906F905F904F900895CF93DF93C1
:1013C000CDB7DEB7A4970FB6F894DEBF0FBECDBF82
:1013D000789484B5826084BD84B5816084BD85B510
:1013E000826085BD85B5816085BD80916E0081601C
:1013F00080936E00109281008091810082608093C2
:1014000081008091810081608093810080918000C3
:101410008160809380008091B10084608093B100EE
:101420008091B00081608093B000809191008260D3
:1014300080939100809191008160809391008091D0
:1014400090008160809390008091A10082608093E1
:10145000A1008091A10081608093A1008091A000F3
:1014600081608093A000809121018260809321019E
:101470008091210181608093210180912001816010
:101480008093200180917A00846080937A0080911B
:101490007A00826080937A0080917A0081608093E4
:1014A0007A0080917A00806880937A001092C1005F
:1014B000E091B903F091BA0382E08083E091B50333
:1014C000F091B6031082E091B703F091B8038FEC6E
:1014D00080831092C103E091BD03F091BE0386E0CA
:1014E0008083E091BB03F091BC03808180618083A5
:1014F000E091BB03F091BC03808188608083E09120
:10150000BB03F091BC03808180688083E091BB03C2
:10151000F091BC0380818F7D808361E085E00E9433
:101520000F0261E086E00E940F0261E086E10E9406
:101530000F0261E087E10E940F0261E089E00E94F2
:101540000F0261E08AE00E940F0261E088E10E94E0
:101550000F0261E089E10E940F0261E086E10E94D2
:10156000830161E087E10E94830161E088E10E94DC
:10157000830161E089E10E94830162E082E00E94D0
:101580000F0262E083E00E940F0262E082E10E94AB
:101590000F0262E083E10E940F0287E193E09093E3
:1015A00001028093000280916A00836080936A0048
:1015B000EC9A8BE293E090930B0280930A02809165
:1015C0006900806C80936900EB9A0E94E10489E3D2
:1015D00092E00E94630586E692E00E94630589EA34
:1015E00093E00E94DE03892B09F4A8C06CE272E04C
:1015F000CE014F960E9490060E94900397FD1EC058
:101600008A309105D9F089831A820BA11CA10F5F42
:101610001F4FB801CE014F960E943D06882361F30B
:101620002F8D38A18BA19CA1BE016F5F7F4F820FD0
:10163000931F0E9405131CA30BA3DECFCE014F9670
:101640000E94A805CBA0DCA0C114D10409F472C08B
:10165000EF8CF8A060E270E0C7010E94FA120097D8
:1016600031F08C010E191F090F3F1007B1F41A8ECB
:10167000198E1C8E1B8E1E8E1D8EE114F10431F00E
:10168000A601B701CE0149960E9465066CE272E0A0
:10169000CE0143960E94900616C0980150E040E0AB
:1016A000BE01615E7F4FCE0149960E94A1062BA12B
:1016B0003CA1A8014F5F5F4FBE01615E7F4FCE012D
:1016C00043960E94A106CE0149960E94A805CE012C
:1016D00043960E94A80564EA72E0CE0101960E943A
:1016E0009006BE016F5F7F4FCE0149960E940506AE
:1016F000182FCE0101960E949505112311F1CE01FC
:1017000043960E949D056B01AB0166E070E085E0A9
:1017100090E00E94B40486EA92E00E947105C6013E
:101720000E947305CE0143960E949505CE0149960D
:101730000E949505CE014F960E9495050E94830454
:101740004ECF62EA72E0CE0101960E949006BE0181
:101750006F5F7F4FCE0149960E940506182FCE017C
:1017600001960E949505112379F0CE0143960E94BF
:101770009D056B01AB016AE070E089E090E00E949A
:10178000B40486EB92E0C9CF66EC72E0CE01079616
:101790000E949006BE01695F7F4FCE0149960E946C
:1017A000050611E0811115C06FEC72E0CE010196C3
:1017B0000E949006BE016F5F7F4FCE0149960E9446
:1017C000050611E0811101C010E0CE0101960E94D2
:1017D0009505CE0107960E9495051123B9F0009159
:1017E000100210911102A80166E070E085E090E01F
:1017F0000E94B404A8016AE070E089E090E00E94D1
:10180000B40488EC92E00E9463058CCF67ED72E02F
:10181000CE010D960E949006BE01635F7F4FCE0100
:1018200049960E94050611E0811129C063E473E026
:10183000CE0107960E949006BE01695F7F4FCE01E0
:1018400049960E94050611E0811115C061EE72E013
:10185000CE0101960E949006BE016F5F7F4FCE01C0
:1018600049960E94050611E0811101C010E0CE01E9
:1018700001960E949505CE0107960E949505CE011E
:101880000D960E9495051123C1F000911002109150
:101890001102119501951109A80166E070E085E03B
:1018A00090E00E94B404A8016AE070E089E090E052
:1018B0000E94B4048AED92E0A6CF6AEE72E0CE01F7
:1018C00007960E949006BE01695F7F4FCE01499640
:1018D0000E94050611E0811115C063EF72E0CE0190
:1018E00001960E949006BE016F5F7F4FCE01499620
:1018F0000E94050611E0811101C010E0CE010196A1
:101900000E949505CE0107960E9495051123C1F00E
:10191000009110021091110244275527401B510BD2
:1019200066E070E085E090E00E94B404A8016AE0FF
:1019300070E089E090E00E94B4048CEE92E063CF06
:1019400068EF72E0CE0107960E949006BE01695FC3
:101950007F4FCE0149960E94050611E0811115C006
:1019600061E073E0CE0101960E949006BE016F5FB8
:101970007F4FCE0149960E94050611E0811101C0FA
:1019800010E0CE0101960E949505CE0107960E94B7
:1019900095051123C1F00091100210911102A801C8
:1019A00066E070E085E090E00E94B404442755278B
:1019B000401B510B6AE070E089E090E00E94B404A3
:1019C0008AEF92E020CF67E073E0CE0107960E9495
:1019D0009006BE01695F7F4FCE0149960E940506C1
:1019E00011E0811115C060E173E0CE0101960E9403
:1019F0009006BE016F5F7F4FCE0149960E9405069B
:101A000011E0811101C010E0CE0101960E94950500
:101A1000CE0107960E949505112329F00E94E1044A
:101A200089E093E0F0CE65E173E0CE0101960E947B
:101A30009006BE016F5F7F4FCE0149960E9405065A
:101A4000182FCE0101960E949505112331F18F893F
:101A5000988D892BF9F0CE0143960E949D0597FD44
:101A600013C06F3F71058105910509F084F47093EF
:101A700011026093100287E193E00E94710580914A
:101A80001002909111024CCE70E060E0F0CF6FEF49
:101A900070E0EDCF8DE293E0F0CF61EA72E0CE012D
:101AA00007960E949006BE01695F7F4FCE0149965E
:101AB0000E94050611E0811115C06FE373E0CE01AD
:101AC00001960E949006BE016F5F7F4FCE0149963E
:101AD0000E94050611E0811101C010E0CE010196BF
:101AE0000E949505CE0107960E949505112309F4E1
:101AF0007BC0F89460919C0370919D0380919E033C
:101B000090919F038090980390909903A0909A03DE
:101B1000B0909B0310929C0310929D0310929E0321
:101B200010929F03109298031092990310929A03B7
:101B300010929B0378940E947A0E20E030E040E7F8
:101B400052E40E94D90E20E030E046E154E40E94C5
:101B500031106B017C0188E493E00E94710542E042
:101B6000C701B6010E9402098AE593E00E9471054F
:101B7000C501B4010E947A0E20E030E040E752E453
:101B80000E94D90E20E030E046E154E40E9431107A
:101B900042E00E9402098AE292E00E94F104009170
:101BA00010021091110283E693E00E947105C701B3
:101BB000B6010E94A310CB010E948B0583E793E03E
:101BC0000E947105C8010E948B058BE793E00E947B
:101BD000710542E060E070E0CB010E9402098AE2F8
:101BE00092E00E94F1049ECD85E893E00E94710589
:101BF0004BA15CA16F8D78A189EA93E00E9440031C
:101C0000EECFE9EAF3E01382128288EE93E0A0E0DF
:101C1000B0E084839583A683B7838CE192E09183BF
:101C2000808385EC90E09587848784EC90E09787AB
:101C3000868780EC90E0918B808B81EC90E0938B99
:101C4000828B82EC90E0958B848B86EC90E0978B76
:101C5000868B118E128E138E148E08951F93FC01A5
:101C600099278827BC01E89411911032E9F31930C3
:101C700010F01E30C8F31B3251F01D3249F4689445
:101C800006C00E94550E610F711D811D911D11919D
:101C900010531A30B0F33EF490958095709561958D
:101CA0007F4F8F4F9F4F1F910895592F482F372FE8
:101CB000262F660F771F881F991F660F771F881FB3
:101CC000991F620F731F841F951F660F771F881F50
:101CD000991F089591110C94460F803219F0895084
:101CE0008550C8F708950E94B50E08F481E0089564
:101CF000E89409C097FB3EF49095809570956195A6
:101D00007F4F8F4F9F4F9923A9F0F92F96E9BB275B
:101D10009395F695879577956795B795F111F8CFD7
:101D2000FAF4BB0F11F460FF1BC06F5F7F4F8F4F42
:101D30009F4F16C0882311F096E911C0772321F038
:101D40009EE8872F762F05C0662371F096E8862FD0
:101D500070E060E02AF09A95660F771F881FDAF727
:101D6000880F9695879597F90895990F0008550F54
:101D7000AA0BE0E8FEEF16161706E807F907C0F011
:101D800012161306E407F50798F0621B730B840B19
:101D9000950B39F40A2661F0232B242B252B21F4F3
:101DA00008950A2609F4A140A6958FEF811D811D93
:101DB00008950E94EC0E0C94600F0E94520F38F0B0
:101DC0000E94590F20F0952311F00C94490F0C94A8
:101DD0004F0F11240C94940F0E94710F70F3959F74
:101DE000C1F3950F50E0551F629FF001729FBB2712
:101DF000F00DB11D639FAA27F00DB11DAA1F649FAE
:101E00006627B00DA11D661F829F2227B00DA11D60
:101E1000621F739FB00DA11D621F839FA00D611DE6
:101E2000221F749F3327A00D611D231F849F600D07
:101E3000211D822F762F6A2F11249F5750409AF030
:101E4000F1F088234AF0EE0FFF1FBB1F661F771FBC
:101E5000881F91505040A9F79E3F510580F00C9487
:101E6000490F0C94940F5F3FE4F3983ED4F38695AA
:101E700077956795B795F795E7959F5FC1F7FE2B27
:101E8000880F911D9695879597F90895992788272A
:101E9000089597F99F6780E870E060E008959FEFEC
:101EA00080EC089500240A941616170618060906F1
:101EB000089500240A9412161306140605060895C0
:101EC000092E0394000C11F4882352F0BB0F40F448
:101ED000BF2B11F460FF04C06F5F7F4F8F4F9F4F88
:101EE000089557FD9058440F551F59F05F3F71F00A
:101EF0004795880F97FB991F61F09F3F79F0879571
:101F00000895121613061406551FF2CF4695F1DFF9
:101F100008C0161617061806991FF1CF8695710589
:101F2000610508940895E894BB2766277727CB01BD
:101F300097F90895A1E21A2EAA1BBB1BFD010DC043
:101F4000AA1FBB1FEE1FFF1FA217B307E407F50769
:101F500020F0A21BB30BE40BF50B661F771F881F45
:101F6000991F1A9469F760957095809590959B01DB
:101F7000AC01BD01CF010895EE0FFF1F881F8BBF7D
:101F80000790F691E02D19945058BB27AA270E947C
:101F9000DC0F0C94600F0E94520F38F00E94590F12
:101FA00020F039F49F3F19F426F40C944F0F0EF4EF
:101FB000E095E7FB0C94490FE92F0E94710F58F34D
:101FC000BA17620773078407950720F079F4A6F51E
:101FD0000C94930F0EF4E0950B2EBA2FA02D0B014D
:101FE000B90190010C01CA01A0011124FF27591B5E
:101FF00099F0593F50F4503E68F11A16F040A22F64
:10200000232F342F4427585FF3CF469537952795D4
:10201000A795F0405395C9F77EF41F16BA0B620BD3
:10202000730B840BBAF09150A1F0FF0FBB1F661F1A
:10203000771F881FC2F70EC0BA0F621F731F841F5D
:1020400048F4879577956795B795F7959E3F08F083
:10205000B0CF9395880F08F09927EE0F9795879545
:1020600008950E9445100C94600F0E94590F58F07B
:102070000E94520F40F029F45F3F29F00C94490F61
:1020800051110C94940F0C944F0F0E94710F68F330
:102090009923B1F3552391F3951B550BBB27AA2721
:1020A00062177307840738F09F5F5F4F220F331F5B
:1020B000441FAA1FA9F335D00E2E3AF0E0E832D023
:1020C00091505040E695001CCAF72BD0FE2F29D026
:1020D000660F771F881FBB1F261737074807AB07F8
:1020E000B0E809F0BB0B802DBF01FF2793585F4F6D
:1020F0003AF09E3F510578F00C94490F0C94940FE0
:102100005F3FE4F3983ED4F3869577956795B7954E
:10211000F7959F5FC9F7880F911D9695879597F959
:102120000895E1E0660F771F881FBB1F62177307D2
:102130008407BA0720F0621B730B840BBA0BEE1FE7
:1021400088F7E09508950E94AA106894B1110C9444
:10215000940F08950E94790F88F09F5798F0B92F37
:102160009927B751B0F0E1F0660F771F881F991FCC
:102170001AF0BA95C9F714C0B13091F00E94930FCC
:10218000B1E008950C94930F672F782F8827B85FDC
:1021900039F0B93FCCF3869577956795B395D9F724
:1021A0003EF490958095709561957F4F8F4F9F4F2E
:1021B00008950E94B50E08F48FEF08950E94B50EA1
:1021C000880B990B08950F931F93CF93DF93823061
:1021D000910510F482E090E0E0914804F091490408
:1021E00030E020E0B0E0A0E0309799F4211531050F
:1021F00009F44AC0281B390B24303105D8F58A81EF
:102200009B816115710589F1FB0193838283FE0136
:1022100011C0408151810281138148175907E0F0B4
:102220004817590799F4109761F012960C9312977A
:1022300013961C933296CF01DF91CF911F910F918E
:1022400008950093480410934904F4CF21153105F3
:1022500051F04217530738F0A901DB019A01BD0183
:10226000DF01F801C1CFEF01F9CF909349048093CA
:102270004804CDCFFE01E20FF31F819391932250CA
:10228000310939832883D7CF209146043091470400
:10229000232B41F42091140230911502309347040E
:1022A000209346042091120230911302211531052A
:1022B00041F42DB73EB74091160250911702241BEE
:1022C000350BE0914604F0914704E217F307A0F4C0
:1022D0002E1B3F0B2817390778F0AC014E5F5F4F7C
:1022E0002417350748F04E0F5F1F50934704409363
:1022F0004604819391939FCFF0E0E0E09CCFCF9391
:10230000DF930097E9F0FC01329713821282A091CB
:102310004804B0914904ED0130E020E01097A1F4A9
:1023200020813181820F931F209146043091470410
:102330002817390709F061C0F0934704E093460479
:10234000DF91CF910895EA01CE17DF07E8F54A81C2
:102350005B819E0141155105B1F7E901FB83EA83D9
:1023600049915991C40FD51FEC17FD0761F4808185
:1023700091810296840F951FE90199838883828158
:1023800093819B838A83F0E0E0E012968D919C918B
:1023900013970097B9F52D913C911197CD010296B5
:1023A000820F931F20914604309147042817390764
:1023B00039F6309751F51092490410924804B093C1
:1023C0004704A0934604BCCFD383C283408151818C
:1023D000840F951FC817D90761F44E5F5F4F88813E
:1023E0009981480F591F518340838A819B81938330
:1023F00082832115310509F0B0CFF0934904E093B1
:1024000048049ECFFD01DC01C0CF13821282D7CFDA
:102410004F925F926F927F928F929F92AF92BF92F4
:10242000CF92DF92EF92FF920F931F93CF93DF93A0
:102430008C01009799F4CB01DF91CF911F910F91FF
:10244000FF90EF90DF90CF90BF90AF909F908F90D4
:102450007F906F905F904F900C94E310FC01E60F1B
:10246000F71F9C0122503109E217F30708F4AEC0B0
:10247000D901CD91DC911197C617D70720F1C5304E
:10248000D10578F0CE0104978617970750F0C61B48
:10249000D70B2297C193D1936D937C93CF010E9468
:1024A0007F11C801DF91CF911F910F91FF90EF90A5
:1024B000DF90CF90BF90AF909F908F907F906F9064
:1024C0005F904F9008955B01AC1ABD0A4C018C0ED1
:1024D0009D1EA0914804B0914904512C412CF12C2F
:1024E000E12C109731F580914604909147048815AE
:1024F000990509F05CC04616570608F058C080914F
:10250000120290911302009741F48DB79EB740914B
:10251000160250911702841B950BE817F90708F073
:1025200055C0F0934704E0934604F901718360833A
:10253000B8CF8D919C91119712966C90129713962B
:102540007C901397A815B90559F56C0142E0C40EAB
:10255000D11CCA14DB0420F1AC014A195B09DA0171
:102560001296159780F06282738251834083D9015D
:102570006D937C93E114F10471F0D7011396FC93F1
:10258000EE9312978ECF22968C0F9D1FF9019183A7
:102590008083F301EFCFF0934904E093480481CFA7
:1025A0004816590608F42C017D01D3019ACFCB01BE
:1025B0000E94E3107C01009749F0AE01B8010E942F
:1025C000F112C8010E947F1187016BCF10E000E07B
:1025D00068CF9111089581548A5108F4805E855A1C
:1025E0000895FB01DC0102C001900D924150504062
:1025F000D8F70895FC018191861721F08823D9F737
:10260000992708953197CF010895FB01DC010190CE
:0C2610000D920020E1F70895F894FFCF30
:10261C003F033F033F033F033F033F033F033F039E
:10262C00B40000004A0480000000000016044003BF
:10263C006D036304DE037C03D0030D0A006E616E30
:10264C0000696E66006F7666004942542D32205246
:10265C006F626F7420436F6E74726F6C2077697445
:10266C00682052504D20466565646261636B205250
:10267C00656164792E00436F6D6D616E64733A20F1
:10268C0041203C73706565643E2C2042203C737085
:10269C006565643E2C20462C20424B2C204C2C2073
:1026AC00522C20532C2056203C73706565643E2CB4
:1026BC002046420041004D6F746F722041207365BB
:1026CC007420746F20004D6F746F722042207365FC
:1026DC007420746F20004600526F626F743A20466B
:1026EC004F525741524400424B00526F626F743A42
:1026FC00204241434B57415244004C00526F626F91
:10270C00743A204C454654005200526F626F743A32
:10271C00205249474854005300526F626F743A205C
:10272C0053544F5000560044656661756C742073A9
:10273C00706565642073657420746F200044656651
:10274C0061756C7420737065656420697320004634
:10275C004545444241434B005B4645454442414359
:10276C004B5D2052504D5F413D00202052504D5F3B
:10277C00423D0073656E64746F5350493A20727019
:10278C006D3D002073706565643D00206375727249
:10279C00656E743D00556E6B6E6F776E20636F6D5A
:0827AC006D616E643A2000002B
:00000001FF
